:100000000C943A010C9462010C9462010C9462010C
:100010000C9462010C9462010C9462010C946201D4
:100020000C9462010C9462010C9424070C94EF0769
:100030000C9462010C9462010C9462010C946201B4
:100040000C9462010C9462010C9462010C946201A4
:100050000C9462010C9462010C9462010C9469048A
:100060000C9462010C9462010C9462010C94620184
:100070000C9462010C9462010C9462010C94620174
:100080000C9462010C9462010C9462010C94620164
:100090000C9462010C9462010C9462010C94620154
:1000A0000C9462010C9462010C946201A701AA01F4
:1000B00099019D01A301CB01CB01CB01AE01B2019E
:1000C000B601BC01C001CB01C60100000000000068
:1000D00000002A2B280000000000000000000000A3
:1000E000000000000000000000002C9EB4A0A1A2AF
:1000F000A434A6A7A5AE362D3738271E1F202122EF
:1001000023242526B333B62EB7B89F8485868788E7
:10011000898A8B8C8D8E8F909192939495969798D7
:10012000999A9B9C9D2F3130A3AD35040506070895
:10013000090A0B0C0D0E0F101112131415161718B7
:10014000191A1B1C1DAFB1B0B5000000000024003F
:1001500027002A002D0030000000000025002800A4
:100160002B002E0031000000000023002600290093
:100170002C002F00040404040403040502020202FC
:100180000403020202020606060606060404020230
:100190000204040408020110408040102040804006
:1001A00080080204018040201002011080102040CD
:1001B00040200000000200090F0000030401000CB1
:1001C000000000000000000000000000000000002F
:1001D00000080B00020202010009040000010202F3
:1001E0000000052400100105240101010424020679
:1001F00005240600010705810310004009040100E1
:10020000020A000000070502024000000705830201
:100210004000000403090412010002EF0201404102
:1002200023378000010102030141726475696E6F1A
:10023000204C4C430041726475696E6F204D6963B8
:10024000726F0005010906A1018502050719E02961
:10025000E715002501750195088102950175088152
:1002600003950675081500256505071900296581A0
:1002700000C02A0C11241FBECFEFDAE0DEBFCDBFD5
:1002800011E0A0E0B1E0E6EDFDE102C005900D92C5
:10029000A035B107D9F723E0A0E5B1E001C01D9278
:1002A000AC3CB207E1F711E0CAE3D1E004C021970A
:1002B000FE010E94DE0EC933D107C9F70E941F0A52
:1002C0000C94E90E0C940000CF92DF92EF92FF9213
:1002D0000F931F93CF93DF936C017A018B01C0E0E2
:1002E000D0E0CE15DF0589F0D8016D918D01D601E2
:1002F000ED91FC910190F081E02DC6010995892BCB
:1003000011F47E0102C02196ECCFC701DF91CF919D
:100310001F910F91FF90EF90DF90CF90089590E0A4
:10032000FC013197EF30F105B0F5EA5AFF4F0C941C
:10033000DE0E809180008F7703C0809180008F7DDA
:1003400080938000089580918000877FF9CF84B5E5
:100350008F7702C084B58F7D84BD08958091900011
:100360008F7707C0809190008F7D03C080919000AF
:10037000877F8093900008958091C0008F7703C09D
:100380008091C0008F7D8093C00008958091C2004D
:10039000877F8093C20008951F93CF93DF93282F08
:1003A00030E0F901EE54FE4F8491F901ED56FE4F15
:1003B000D491F901EC58FE4FC491CC23C9F0162F0B
:1003C00081110E948F01EC2FF0E0EE0FFF1FE85A21
:1003D000FE4FA591B4918FB7F894111105C09C916F
:1003E000ED2FE095E92302C0EC91ED2BEC938FBF4C
:1003F000DF91CF911F910895CF93DF9390E0FC019F
:10040000ED56FE4F2491FC01EC58FE4F8491882359
:1004100061F190E0880F991FFC01E65BFE4FC591EA
:10042000D491FC01E85AFE4FA591B491611109C025
:100430009FB7F8948881209582238883EC912E239E
:100440000BC0623061F49FB7F8943881822F809599
:1004500083238883EC912E2B2C939FBF06C08FB7EC
:10046000F894E8812E2B28838FBFDF91CF910895D8
:100470003FB7F89480916A0190916B01A0916C0153
:10048000B0916D0126B5A89B05C02F3F19F00196CC
:10049000A11DB11D3FBFBA2FA92F982F8827820F0A
:1004A000911DA11DB11DBC01CD0142E0660F771F5A
:1004B000881F991F4A95D1F708958F929F92AF9206
:1004C000BF92CF92DF92EF92FF926B017C010E946C
:1004D00038024B015C01C114D104E104F104F1F0D4
:1004E0000E943802DC01CB0188199909AA09BB09CD
:1004F000883E9340A105B10570F321E0C21AD108EE
:10050000E108F10888EE880E83E0981EA11CB11C5A
:10051000C114D104E104F10419F7DDCFFF90EF908D
:10052000DF90CF90BF90AF909F908F900895DC01A7
:10053000FB0112968C91129790E0248135818217ED
:100540009307D1F491818081813A31F481E0913037
:1005500091F0933089F411C0813271F49B3021F411
:1005600082811F968C9305C09A3031F48281509617
:100570008C9381E00895089580E00895DC01FB01EB
:1005800088E4808389E4818384E482831D969C913E
:100590001D979F709F5B93831D968D919C911E97D5
:1005A00024E0969587952A95E1F78F708F5B848379
:1005B00085E00895FC0182818F5BFB01808381E0EF
:1005C0000895089580E090E008950E94E40EEF926F
:1005D000FF920F931F93CF93DF93FB01208121386C
:1005E00051F52381223239F5DC0112962C9130E04D
:1005F0004481558142175307F1F4EC010B851C85AA
:10060000E12CF12C0115110591F0F801448155817F
:100610006281738180E80E9496078F3FFFEF9F07FA
:1006200069F0E80EF91ED8010D911C91EBCF81E025
:100630008F87C70105C080E090E002C08FEF9FEF79
:10064000DF91CF911F910F91FF90EF900895CF937D
:10065000DF93CDB7DEB769970FB6F894DEBF0FBE54
:10066000CDBFFC01DB018C918F5F8C93BE016F5F6E
:100670007F4F89E1DB011D928A95E9F729E0298303
:1006800084E08A8391E09D8383E08E832A8721E240
:100690002B879C879D879F8722E2288B27E02B8BC7
:1006A00025E02C8B8E8B20E430E0388F2F8B998FB8
:1006B00082818B8395858685998B8A8B83818068DF
:1006C0008D8B49E150E080E00E94960769960FB655
:1006D000F894DEBF0FBECDBFDF91CF91089540915A
:1006E000D2015091D3012091D0013091D101421714
:1006F0005307B4F49091E8009570E1F39091E8000D
:1007000092FD19C08093F1008091D2019091D301A4
:1007100001968F739927892B19F48EEF8093E80047
:100720008091D2019091D30101969093D30180934F
:10073000D20181E0089580E008952FB7F894877082
:100740008093E9009091E800892F807295FF04C0A2
:100750009091F20080E4891B2FBF08957F928F92C1
:100760009F92AF92BF92CF92DF92EF92FF920F9340
:100770001F93CF93DF93C82E8B017A018091D9010B
:10078000811103C08FEF9FEF75C08091D60180FF6C
:1007900005C08091E00082608093E000CE2DDF2DC7
:1007A000D12C8AEF882E8C2D8770B82E8C2D8072DC
:1007B000A82E8C2D8074982E9AE3792E209709F418
:1007C00052C08C2D0E949D03282F81110AC08A944B
:1007D0008820C1F261E070E080E090E00E945D025C
:1007E000EDCF90E0C817D9070CF42C2F3FB7F89441
:1007F000B092E9008091E80085FF33C0822F90E03D
:10080000C81BD90BAA2029F02150A8F01092F100A2
:10081000FBCFF801C7FE07C0215058F04491409328
:10082000F1003196F9CF215020F041914093F10031
:10083000FACF080F191FDD2019F07092E8000AC0E6
:100840008091E80085FD08C07092E800DD24D39413
:10085000209739F0D12C05C0209719F4911070928F
:10086000E8003FBFABCFD110ACCF5D9A84E6809358
:10087000D701C701DF91CF911F910F91FF90EF90AA
:10088000DF90CF90BF90AF909F908F907F90089512
:10089000615030F02091F100FC0120830196F8CFE7
:1008A000289A84E68093D80108958091C801811127
:1008B0000DC082E08093C40184E08093C501109252
:1008C000C7011092C60181E08093C80184EC91E0D9
:1008D00008951F920F920FB60F9211242F933F93FA
:1008E0008F939F93AF93BF9380916E0190916F010F
:1008F000A0917001B09171013091690123E0230F43
:100900002D3720F40196A11DB11D05C026E8230F47
:100910000296A11DB11D2093690180936E019093F1
:100920006F01A0937001B093710180916A01909161
:100930006B01A0916C01B0916D010196A11DB11DDB
:1009400080936A0190936B01A0936C01B0936D0149
:10095000BF91AF919F918F913F912F910F900FBEBB
:100960000F901F9018958091610181116BC081E0FB
:1009700080935401809355012AE531E0309357016B
:1009800020935601109259011092580127E131E04D
:10099000309351012093500110925C0110925B0141
:1009A00010925E0110925D0180935F01809360015F
:1009B00081EC80935A010E945504FC0121818091B1
:1009C000540190E0820F911D089724F081E08093FC
:1009D000610138C0A281B381109729F480E591E0CC
:1009E000938382830EC018968D919C9119970097DE
:1009F00011F0DC01F8CF80E591E019969C938E937D
:100A00001897808180935201818180935301908156
:100A100080915501890F808380E09091540189175E
:100A2000A8F6A0915601B0915701A80FB11D9C9155
:100A3000A181B0E0A050BF4F9C9391819F5F9183B3
:100A40008F5FEBCF80E591E00895CF93DF93DC01DA
:100A5000683810F0685825C0E62FF0E067FF12C034
:100A6000E058F10981E090E001C0880FEA95EAF7CB
:100A7000809514969C911497892314968C931497BF
:100A800060E00FC0E653FF4F6491662311F167FFEA
:100A900008C014968C9114978D7F14968C9314979C
:100AA0006F77FD01369686E0662321F090819613DC
:100AB00001C01082815031968111F6CFED010E9464
:100AC000B304BE016C5F7F4F0E94F30681E090E0AB
:100AD00002C080E090E0DF91CF910895CF93DF9343
:100AE000DC01683810F068582DC0E62FF0E067FF91
:100AF00011C0E058F10981E090E001C0880FEA954B
:100B0000EAF714969C911497892B14968C9314975A
:100B100060E018C0E653FF4F6491611109C081E0A5
:100B200090E013969C938E93129780E090E043C0E0
:100B300067FF08C014968C911497826014968C936A
:100B400014976F7716968C911697861751F1179612
:100B50008C911797861729F118968C9118978617FC
:100B600001F119968C9119978617D9F01A968C91E4
:100B70001A978617B1F01B968C911B97861789F0F0
:100B8000FD01369680E090E02191211105C0FD0124
:100B9000E80FF91F668305C0019686309105A1F71D
:100BA000BECFED010E94B304BE016C5F7F4F0E9477
:100BB000F30681E090E0DF91CF910895EF92FF92EC
:100BC0001F93CF93DF93EC01162F0E946E057C01DB
:100BD000612FCE010E942505C7019927DF91CF9192
:100BE0001F91FF90EF900895FC018091D901811130
:100BF00003C08FEF9FEF08959FB7F89482E0809332
:100C0000E9002091F20030E01216130614F421E0FE
:100C100030E02115310559F0289A84E68093D801F7
:100C20008091F10080838091F200882319F09FBFAA
:100C3000C90108958BE68093E800F9CFCF93DF9345
:100C40001F92CDB7DEB76983DC01ED91FC91028084
:100C5000F381E02D41E050E0BE016F5F7F4F0995C9
:100C60000F90DF91CF91089583E08093E900809108
:100C7000F200882319F08AE38093E8000895CF9367
:100C8000DF931F92CDB7DEB7FC018485958597FD74
:100C900005C02FEF3FEF358724870BC0CE010196AB
:100CA0000E94F405019719F4898190E002C08FEF4A
:100CB0009FEF0F90DF91CF9108950F931F93CF93E4
:100CC000DF931F92CDB7DEB78C01FC01848595853B
:100CD00097FF0EC0CE0101960E94F405019719F40A
:100CE000298130E002C02FEF3FEFF80135872487DC
:100CF000F801848595850F90DF91CF911F910F9119
:100D00000895FC018485958597FD0BC09FB7F894E5
:100D100082E08093E9008091F2009FBF90E001960D
:100D200008959FB7F89482E08093E9008091F200E3
:100D30009FBF90E00895CF93DF93EC018091120163
:100D4000882331F083E00E94AE031816190634F0B0
:100D500081E090E09B838A8380E090E0DF91CF91F7
:100D6000089583E00E949D0390E00895CF92DF9262
:100D7000EF92FF920F931F93CF93DF931F92CDB704
:100D8000DEB7182F062FE42E862F880F8E5F9983EB
:100D90000E946F0383E00E946F03F12EC12E9981A0
:100DA000D92E8C2D8F19801798F4F601E7FE02C01A
:100DB000849101C080810E946F03182F80E00E94FF
:100DC0006F038123FFEFCF1ADF0A8111EACF01C041
:100DD00081E00F90DF91CF911F910F91FF90EF90E5
:100DE000DF90CF900895CF92DF92EF92FF920F9312
:100DF0001F93CF93DF931F92CDB7DEB77C016B01BA
:100E000082E0898341E050E0BE016F5F7F4FF701D0
:100E100083810E94AE038C0197FD0CC0F701838192
:100E200048E050E0B60180640E94AE0397FD02C026
:100E3000800F911F0F90DF91CF911F910F91FF9025
:100E4000EF90DF90CF9008951F920F920FB60F9200
:100E500011248F939F938091E1009091E100937F03
:100E60009093E10083FF0FC01092E90091E090930E
:100E7000EB001092EC0092E39093ED001092D901F8
:100E800098E09093F00082FF20C093E09093E900F7
:100E90009091F200992319F09AE39093E8009091D1
:100EA000D701992339F09091D70191509093D701B0
:100EB000992389F19091D801992339F09091D80123
:100EC00091509093D801992341F184FF10C08091F3
:100ED000E2008E7E81608093E2008091E1008F7E4F
:100EE0008093E1008091D6018E7E806111C080FFE9
:100EF00016C08091E2008E7E80618093E200809136
:100F0000E1008E7E8093E1008091D6018E7E81602B
:100F10008093D60104C05D98CDCF2898D6CF9F91FD
:100F20008F910F900FBE0F901F901895DF92EF9248
:100F3000FF920F931F93CF93DF93D82E8A017B01EB
:100F4000E40EF51EEB01CE15DF0571F0D7FE03C0F0
:100F5000FE01849101C088810E946F032196811156
:100F6000F2CF8FEF9FEF01C0C801DF91CF911F91AA
:100F70000F91FF90EF90DF9008950F931F93CF9301
:100F8000DF931F92CDB7DEB782E0898342E450E061
:100F900061ED71E080E80E9496070E945504DC0133
:100FA00012960D911C9113970115110569F0D80146
:100FB000ED91FC910280F381E02DBE016F5F7F4FC8
:100FC000C801099597FF07C089810F90DF91CF91E4
:100FD0001F910F910895F80100851185E5CF1F92AB
:100FE0000F920FB60F921124CF92DF92EF92FF92E1
:100FF0000F931F932F933F934F935F936F937F9321
:101000008F939F93AF93BF93EF93FF93CF93DF9310
:10101000CDB7DEB76C97DEBFCDBF1092E9008091EF
:10102000E80083FFEDC168E0CE0145960E944804C8
:1010300082EF8093E8008D8987FF05C09091E800DA
:1010400090FFFCCF03C09EEF9093E800982F90761E
:1010500009F0C6C09E892F89188D91110CC0803867
:1010600029F48091D5018093F10002C01092F10023
:101070001092F10048C1422F50E0512B913051F4B1
:10108000811141C14130510509F03DC18091D50127
:101090008D7F0BC0933061F4811135C14130510512
:1010A00009F031C18091D50182608093D5012BC1B7
:1010B000953041F48091E80080FFFCCF20682093B8
:1010C000E30021C1963009F05FC0EB8CFC8C1092DC
:1010D000E9001092D3011092D201123091F51092D2
:1010E000D1011092D0010E94BD0799E0BE016F5F4F
:1010F0007F4FDB01E92F1D92EA95E9F799831A8367
:1011000091E09E8390EA98879AEF99872091D20187
:101110003091D301275F3F4F3C832B838D83109207
:10112000E9001092D3011092D201F092D101E09225
:10113000D00149E050E080E00E9496070E94BD0780
:10114000E2C0F092D101E092D0010E945504DC018E
:101150001296ED90FC901397E114F10409F4C0C0CD
:10116000D701ED91FC910480F581E02DBE016B5E0D
:101170007F4FC7010995009719F00CF0C4C0C7C094
:10118000F701E084F184E8CF973009F4C0C09830CB
:1011900021F481E08093F100B6C0993009F0B3C02A
:1011A000837009F0B4C0E1E0F1E081E021E036E3D2
:1011B0009081992361F08093E9002093EB00919155
:1011C0009093EC003093ED008F5F873089F78EE7C6
:1011D0008093EA001092EA008F898093D90193C02E
:1011E0008B8D9C8D1092E9001092D3011092D20148
:1011F0009093D1018093D001898D811156C08E8941
:101200009D89913A59F4813209F081C047E050E05C
:101210006BE071E080E00E94960775C0913209F0A2
:1012200076C0833289F4888D90E0982F88272F89A3
:10123000822BA0E0B0E08093070190930801A09377
:101240000901B0930A015FC0803269F48091E8001F
:1012500082FFFCCF67E08BE091E00E9448048BEFB7
:101260008093E80006C0823209F04DC08F898093D8
:1012700012018091D401882319F0EEEFFAE002C048
:10128000E0E0F8E080910B0190910C01A0910D013C
:10129000B0910E01803B9440A105B10509F07BC0DF
:1012A0008091120180FF93C076C00E945504DC013A
:1012B00012960D911C9113970115110541F1D8015A
:1012C000ED91FC910190F081E02DBE016B5E7F4FAE
:1012D000C8010995811117C0F80100851185ECCF6F
:1012E000113009F44EC0133091F48F89882309F42A
:1012F00045C0823081F440E86DE085E392E00E94D1
:10130000B606882321F08EEF8093E80079C081E251
:101310008093EB0075C0813029F440E86BE089E2EE
:1013200092E0EDCF833099F70E945504DC011296CC
:10133000ED90FC9013978E010F5F1F4F6801E11431
:10134000F10479F0D701ED91FC910680F781E02D51
:10135000B801C7010995080F111DF701E084F18458
:10136000EECFD8011C92F60101900020E9F73197E9
:10137000BF016C197D0940E0C601C1CF63E172E095
:1013800002C067E172E06115710509F2FB01449149
:1013900050E080E840CF0FB6F894A89580916000A7
:1013A000886180936000109260000FBEA895EE3FA8
:1013B0002AE0F20739F08091FE0A9091FF0A9183AA
:1013C0008083A1CF1092FF0A1092FE0A9CCFEE3FBD
:1013D0008AE0F80731F0808191819093FF0A809331
:1013E000FE0A87E797E7918380839BE088E10FB649
:1013F000F894A895809360000FBE9093600083CF0F
:101400006C960FB6F894DEBF0FBECDBFDF91CF91C3
:10141000FF91EF91BF91AF919F918F917F916F91CC
:101420005F914F913F912F911F910F91FF90EF90FE
:10143000DF90CF900F900FBE0F901F901895CF9315
:10144000DF9300D000D0CDB7DEB7789484B582604A
:1014500084BD84B5816084BD85B5826085BD85B558
:10146000816085BD80916E00816080936E001092D6
:101470008100809181008260809381008091810051
:1014800081608093810080918000816080938000E2
:1014900080919100826080939100809191008160A1
:1014A0008093910080919000816080939000809162
:1014B000C10084608093C1008091C10082608093EC
:1014C000C1008091C10081608093C1008091C30000
:1014D00081608093C3008091C00082608093C000CF
:1014E0008091C20081608093C20080917A00846004
:1014F00080937A0080917A00826080937A00809154
:101500007A00816080937A0080917A00806880936D
:101510007A001092D9011092D5011092D6018091D3
:10152000D70081608093D70080EA8093D80089B586
:10153000806189BD89B5826089BD09B400FEFDCF97
:1015400061E070E080E090E00E945D028091D80050
:101550008F7C80618093D8008091E000807F8093B1
:10156000E0008091E1008E7E8093E1008DE0809329
:10157000E200559A209A5D982898EEEFFFE7859152
:1015800094918B3F9C4D19F481E08093D40161E0EC
:1015900081E10E94FC0188E7EEE5F2E0A2EEB2E014
:1015A00001900D928A95E1F707E211E062E7C62EFD
:1015B00061E0D62EF801F0800E5F1F4F61E08F2DA5
:1015C0000E94FC0161E08F2D0E94CC01F601108287
:1015D000118212821382148215821682178210865B
:1015E0001186128613861486158616861786F0E1F4
:1015F000CF0ED11C22ECC21621E0D206D9F662E051
:101600008AE00E94FC0162E080E10E94FC0162E04D
:101610008EE00E94FC0162E08FE00E94FC0158E72E
:10162000652E8FB7F89480906E0190906F01A09016
:101630007001B09071018FBF81149104A104B104B5
:1016400021F4812C912C540183948091C2019091BA
:10165000C301059724F01092C3011092C201E090DB
:10166000C201F090C301F701EE0FFF1FE95DFE4FCD
:10167000708060E0872D0E94CC0162E070E080E025
:1016800090E00E945D02870124E0000F111F2A955F
:10169000E1F70E581E4F88E18E9D90018F9D300D11
:1016A0001124F901EE51FD4FFC83EB833FE1C32E82
:1016B00031E0D32EF8012080318042805380211404
:1016C00031044104510459F0D501C4018219930930
:1016D000A409B5094597A105B10508F43AC0F6017A
:1016E000208131813327F901EE54FE4F8491F901B5
:1016F000ED56FE4F9491F901EC58FE4F24912223B0
:1017000009F466C0882331F02A8399830E948F01EF
:1017100099812A81E22FF0E0EE0FFF1FEA59FE4F78
:10172000A591B491EC919E2309F452C0232824285A
:10173000252879F0EB81FC81628173816B3D710515
:1017400009F076C010925B03F801108211821282B8
:1017500013820C5F1F4F8B819C8106969C838B8329
:1017600092E0C90ED11CE7E2CE16E1E0DE0609F0F8
:10177000A1CF80915B0390915A03891761F0811189
:101780000AC06BED8AED91E00E946E056BED8AED6B
:1017900091E00E94250580915B0380935A0361E0EC
:1017A000872D0E94CC01FFEFEF1AFF0AF092C301D0
:1017B000E092C20165E070E080E090E00E945D028E
:1017C00080E090E0892B09F42CCF0E94000029CF03
:1017D00023282428252809F0BCCF80915B03882387
:1017E00091F0EB81FC81828193812091DE02309126
:1017F000DF028217930709F12091D8023091D902B4
:1018000082179307E9F0EB81FC81628173816B3D64
:10181000710521F4F1E0F0935B0304C08AED91E0DF
:101820000E946E05F80180829182A282B38291CFDC
:101830008AED91E00E94250587CFEEE5F2E002C037
:10184000E6EEF1E0A2EEB2E0862D01900D928A95CF
:10185000E1F78FCFCF9310925F0310925E0388EE73
:1018600093E0A0E0B0E08093600390936103A093C5
:101870006203B093630385E391E090935D038093EB
:101880005C038FEF9FEF909369038093680310923E
:10189000DD011092DC0187E491E09093DB018093FD
:1018A000DA018091B203811113C01092AD0310923E
:1018B000AC0383E492E09093AF038093AE038FE296
:1018C00090E09093B1038093B00381E08093B203E2
:1018D0000E94B304FC01A385B485109729F48CEA17
:1018E00093E0948783870BC08D919C91119700970B
:1018F00011F0DC01F9CF8CEA93E08D939C93258560
:1019000036858091B0039091B103820F931F968723
:10191000858780915B0380935A0342EE52E063E037
:1019200070E0AFEFBFEFFA01485E5F4F23E030E0B9
:1019300071836083138212828FEF9FEFB583A4833C
:101940003696E417F50791F7EA55F34061F71092E0
:10195000C7031092C6034BED50E05093C903409368
:10196000C8039093CB038093CA0342E050E05093A6
:10197000DD024093DC026CED70E07093DF02609357
:10198000DE021092E1021092E0025093D7024093DF
:10199000D6026DED70E07093D9026093D80261E0D9
:1019A00070E07093DB026093DA025093C1034093BE
:1019B000C0036EED70E07093C3036093C203509355
:1019C000C5034093C4035093BB034093BA034FED48
:1019D00050E05093BD034093BC033093BF0320936A
:1019E000BE0346E0E6ECF3E0AEE5B2E001900D9216
:1019F0004A95E1F746E0ECEDF2E0A4E6B2E00190B2
:101A00000D924A95E1F746E0E6EDF2E0AAE6B2E093
:101A100001900D924A95E1F746E0E0ECF3E0A0E793
:101A2000B2E001900D924A95E1F710927702109280
:101A3000760247EE50E050937902409378029093FB
:101A40007B0280937A0210927D0210927C0248EE13
:101A500050E050937F0240937E02909381028093E6
:101A60008002109283021092820249EE50E050935D
:101A7000850240938402909387028093860230937C
:101A800089022093880210928B0210928A0290930E
:101A90008D0280938C0210928F0210928E0244EE7F
:101AA00050E0509391024093900290939302809360
:101AB0009202109295021092940245EE50E05093DB
:101AC0009702409396029093990280939802109205
:101AD0009B0210929A0246EE50E050939D02409372
:101AE0009C0290939F0280939E0246E0EAEBF3E013
:101AF000A0EAB2E001900D924A95E1F71092A70298
:101B00001092A60241EE50E05093A9024093A80221
:101B10009093AB028093AA021092AD021092AC0295
:101B200042EE50E05093AF024093AE029093B10268
:101B30008093B0021092B3021092B20243EE50E0D2
:101B40005093B5024093B4029093B7028093B602CB
:101B50003093B9022093B8021092BB021092BA02DD
:101B60009093BD028093BC021092BF021092BE02FD
:101B70004AEE50E05093C1024093C0029093C302DA
:101B80008093C2021092C5021092C4025093C70201
:101B90004093C6029093C9028093C8021092CB0270
:101BA0001092CA024BEE50E05093CD024093CC020B
:101BB0009093CF028093CE021092D1021092D00265
:101BC00040EE50E05093D3024093D2029093D5025E
:101BD0008093D40246E0E6ECF3E0A6EEB1E001909B
:101BE0000D924A95E1F746E0ECEDF2E0ACEEB1E0A3
:101BF00001900D924A95E1F746E0E6EDF2E0A2EFA2
:101C0000B1E001900D924A95E1F746E0E0ECF3E097
:101C1000A8EFB1E001900D924A95E1F73093FF01F2
:101C20002093FE0110920102109200029093030291
:101C3000809302023093050220930402109207025F
:101C400010920602909309028093080230930B02CF
:101C500020930A0210920D0210920C0290930F0230
:101C600080930E02309311022093100210921302FF
:101C7000109212029093150280931402309317026F
:101C800020931602109219021092180290931B02D0
:101C900080931A0230931D0220931C0210921F029F
:101CA00010921E029093210280932002309323020F
:101CB0002093220210922502109224029093270270
:101CC00080932602309329022093280210922B023F
:101CD00010922A0290932D0280932C0210922F02D0
:101CE00010922E0243EB50E05093310240933002A9
:101CF0009093330280933202109235021092340294
:101D00004AED50E0509337024093360290933902E7
:101D10008093380210923B0210923A0242EB50E05C
:101D200050933D0240933C0290933F0280933E02C9
:101D300030934102209340021092430210924202DB
:101D400090934502809344021092470210924602FB
:101D500028ED30E0309349022093480290934B02E3
:101D600080934A0210924D0210924C0229ED30E00D
:101D700030934F0220934E02909351028093500271
:101D8000109253021092520227ED30E03093550228
:101D90002093540290935702809356021092590256
:101DA0001092580220EB30E030935B0220935A02ED
:101DB00090935D0280935C02CF910895EE0FFF1F18
:101DC0000590F491E02D099481E090E0F8940C9452
:061DD000E90EF894FFCFBC
:101DD60000C18081000000FFFFFFFF00E10000005E
:101DE6000000000000000097022703E702BE020A77
:101DF6000010000E000F000900080007000600058D
:101E060000000000001E069B06B106340681063F50
:101E1600065D0600000000DE056401E202E1020044
:00000001FF
